{
  "contractName": "ExerciceSolution",
  "abi": [
    {
      "inputs": [
        {
          "internalType": "string",
          "name": "name_",
          "type": "string"
        },
        {
          "internalType": "string",
          "name": "symbol_",
          "type": "string"
        },
        {
          "internalType": "contract ERC20Claimable",
          "name": "claimable",
          "type": "address"
        },
        {
          "internalType": "contract ERC20Mintable",
          "name": "mintable",
          "type": "address"
        }
      ],
      "stateMutability": "nonpayable",
      "type": "constructor"
    },
    {
      "anonymous": false,
      "inputs": [
        {
          "indexed": true,
          "internalType": "address",
          "name": "owner",
          "type": "address"
        },
        {
          "indexed": true,
          "internalType": "address",
          "name": "spender",
          "type": "address"
        },
        {
          "indexed": false,
          "internalType": "uint256",
          "name": "value",
          "type": "uint256"
        }
      ],
      "name": "Approval",
      "type": "event"
    },
    {
      "anonymous": false,
      "inputs": [
        {
          "indexed": true,
          "internalType": "address",
          "name": "from",
          "type": "address"
        },
        {
          "indexed": true,
          "internalType": "address",
          "name": "to",
          "type": "address"
        },
        {
          "indexed": false,
          "internalType": "uint256",
          "name": "value",
          "type": "uint256"
        }
      ],
      "name": "Transfer",
      "type": "event"
    },
    {
      "inputs": [
        {
          "internalType": "address",
          "name": "owner",
          "type": "address"
        },
        {
          "internalType": "address",
          "name": "spender",
          "type": "address"
        }
      ],
      "name": "allowance",
      "outputs": [
        {
          "internalType": "uint256",
          "name": "",
          "type": "uint256"
        }
      ],
      "stateMutability": "view",
      "type": "function",
      "constant": true
    },
    {
      "inputs": [
        {
          "internalType": "address",
          "name": "spender",
          "type": "address"
        },
        {
          "internalType": "uint256",
          "name": "amount",
          "type": "uint256"
        }
      ],
      "name": "approve",
      "outputs": [
        {
          "internalType": "bool",
          "name": "",
          "type": "bool"
        }
      ],
      "stateMutability": "nonpayable",
      "type": "function"
    },
    {
      "inputs": [
        {
          "internalType": "address",
          "name": "account",
          "type": "address"
        }
      ],
      "name": "balanceOf",
      "outputs": [
        {
          "internalType": "uint256",
          "name": "",
          "type": "uint256"
        }
      ],
      "stateMutability": "view",
      "type": "function",
      "constant": true
    },
    {
      "inputs": [],
      "name": "decimals",
      "outputs": [
        {
          "internalType": "uint8",
          "name": "",
          "type": "uint8"
        }
      ],
      "stateMutability": "view",
      "type": "function",
      "constant": true
    },
    {
      "inputs": [
        {
          "internalType": "address",
          "name": "spender",
          "type": "address"
        },
        {
          "internalType": "uint256",
          "name": "subtractedValue",
          "type": "uint256"
        }
      ],
      "name": "decreaseAllowance",
      "outputs": [
        {
          "internalType": "bool",
          "name": "",
          "type": "bool"
        }
      ],
      "stateMutability": "nonpayable",
      "type": "function"
    },
    {
      "inputs": [
        {
          "internalType": "address",
          "name": "spender",
          "type": "address"
        },
        {
          "internalType": "uint256",
          "name": "addedValue",
          "type": "uint256"
        }
      ],
      "name": "increaseAllowance",
      "outputs": [
        {
          "internalType": "bool",
          "name": "",
          "type": "bool"
        }
      ],
      "stateMutability": "nonpayable",
      "type": "function"
    },
    {
      "inputs": [],
      "name": "name",
      "outputs": [
        {
          "internalType": "string",
          "name": "",
          "type": "string"
        }
      ],
      "stateMutability": "view",
      "type": "function",
      "constant": true
    },
    {
      "inputs": [],
      "name": "symbol",
      "outputs": [
        {
          "internalType": "string",
          "name": "",
          "type": "string"
        }
      ],
      "stateMutability": "view",
      "type": "function",
      "constant": true
    },
    {
      "inputs": [
        {
          "internalType": "address",
          "name": "",
          "type": "address"
        }
      ],
      "name": "tokenvalue",
      "outputs": [
        {
          "internalType": "uint256",
          "name": "",
          "type": "uint256"
        }
      ],
      "stateMutability": "view",
      "type": "function",
      "constant": true
    },
    {
      "inputs": [],
      "name": "totalSupply",
      "outputs": [
        {
          "internalType": "uint256",
          "name": "",
          "type": "uint256"
        }
      ],
      "stateMutability": "view",
      "type": "function",
      "constant": true
    },
    {
      "inputs": [
        {
          "internalType": "address",
          "name": "recipient",
          "type": "address"
        },
        {
          "internalType": "uint256",
          "name": "amount",
          "type": "uint256"
        }
      ],
      "name": "transfer",
      "outputs": [
        {
          "internalType": "bool",
          "name": "",
          "type": "bool"
        }
      ],
      "stateMutability": "nonpayable",
      "type": "function"
    },
    {
      "inputs": [
        {
          "internalType": "address",
          "name": "sender",
          "type": "address"
        },
        {
          "internalType": "address",
          "name": "recipient",
          "type": "address"
        },
        {
          "internalType": "uint256",
          "name": "amount",
          "type": "uint256"
        }
      ],
      "name": "transferFrom",
      "outputs": [
        {
          "internalType": "bool",
          "name": "",
          "type": "bool"
        }
      ],
      "stateMutability": "nonpayable",
      "type": "function"
    },
    {
      "inputs": [],
      "name": "claimTokensOnBehalf",
      "outputs": [],
      "stateMutability": "nonpayable",
      "type": "function"
    },
    {
      "inputs": [
        {
          "internalType": "address",
          "name": "callerAddress",
          "type": "address"
        }
      ],
      "name": "tokensInCustody",
      "outputs": [
        {
          "internalType": "uint256",
          "name": "",
          "type": "uint256"
        }
      ],
      "stateMutability": "nonpayable",
      "type": "function"
    },
    {
      "inputs": [
        {
          "internalType": "uint256",
          "name": "amountToWithdraw",
          "type": "uint256"
        }
      ],
      "name": "withdrawTokens",
      "outputs": [
        {
          "internalType": "uint256",
          "name": "",
          "type": "uint256"
        }
      ],
      "stateMutability": "nonpayable",
      "type": "function"
    },
    {
      "inputs": [
        {
          "internalType": "uint256",
          "name": "amountToWithdraw",
          "type": "uint256"
        }
      ],
      "name": "depositTokens",
      "outputs": [
        {
          "internalType": "uint256",
          "name": "",
          "type": "uint256"
        }
      ],
      "stateMutability": "nonpayable",
      "type": "function"
    },
    {
      "inputs": [],
      "name": "getERC20DepositAddress",
      "outputs": [
        {
          "internalType": "address",
          "name": "",
          "type": "address"
        }
      ],
      "stateMutability": "nonpayable",
      "type": "function"
    }
  ],
  "bytecode": "0x60806040523480156200001157600080fd5b50604051620023683803806200236883398181016040526200003791908101906200024e565b838381600390805190602001906200005192919062000115565b5080600490805190602001906200006a92919062000115565b506012600560006101000a81548160ff021916908360ff160217905550505081600760006101000a81548173ffffffffffffffffffffffffffffffffffffffff021916908373ffffffffffffffffffffffffffffffffffffffff16021790555080600860006101000a81548173ffffffffffffffffffffffffffffffffffffffff021916908373ffffffffffffffffffffffffffffffffffffffff160217905550505050506200040d565b828054600181600116156101000203166002900490600052602060002090601f016020900481019282601f106200015857805160ff191683800117855562000189565b8280016001018555821562000189579182015b82811115620001885782518255916020019190600101906200016b565b5b5090506200019891906200019c565b5090565b620001c191905b80821115620001bd576000816000905550600101620001a3565b5090565b90565b600081519050620001d581620003d9565b92915050565b600081519050620001ec81620003f3565b92915050565b600082601f8301126200020457600080fd5b81516200021b62000215826200031a565b620002ec565b915080825260208301602083018583830111156200023857600080fd5b62000245838284620003a3565b50505092915050565b600080600080608085870312156200026557600080fd5b600085015167ffffffffffffffff8111156200028057600080fd5b6200028e87828801620001f2565b945050602085015167ffffffffffffffff811115620002ac57600080fd5b620002ba87828801620001f2565b9350506040620002cd87828801620001c4565b9250506060620002e087828801620001db565b91505092959194509250565b6000604051905081810181811067ffffffffffffffff821117156200031057600080fd5b8060405250919050565b600067ffffffffffffffff8211156200033257600080fd5b601f19601f8301169050602081019050919050565b6000620003548262000383565b9050919050565b6000620003688262000347565b9050919050565b60006200037c8262000347565b9050919050565b600073ffffffffffffffffffffffffffffffffffffffff82169050919050565b60005b83811015620003c3578082015181840152602081019050620003a6565b83811115620003d3576000848401525b50505050565b620003e4816200035b565b8114620003f057600080fd5b50565b620003fe816200036f565b81146200040a57600080fd5b50565b611f4b806200041d6000396000f3fe608060405234801561001057600080fd5b506004361061010b5760003560e01c8063315a095d116100a2578063a457c2d711610071578063a457c2d7146102d0578063a9059cbb14610300578063b8d56ce314610330578063dd49756e14610360578063dd62ed3e146103905761010b565b8063315a095d14610222578063395093511461025257806370a082311461028257806395d89b41146102b25761010b565b806318160ddd116100de57806318160ddd1461019857806319fa44cd146101b657806323b872dd146101d4578063313ce567146102045761010b565b806306fdde03146101105780630776d1181461012e578063095ea7b31461015e5780630e4f7f361461018e575b600080fd5b6101186103c0565b6040516101259190611c3a565b60405180910390f35b61014860048036036101439190810190611742565b610462565b6040516101559190611d3c565b60405180910390f35b610178600480360361017391908101906117f6565b610516565b6040516101859190611c1f565b60405180910390f35b610196610534565b005b6101a06107ca565b6040516101ad9190611d3c565b60405180910390f35b6101be6107d4565b6040516101cb9190611b89565b60405180910390f35b6101ee60048036036101e991908101906117a7565b6107fe565b6040516101fb9190611c1f565b60405180910390f35b61020c6108d7565b6040516102199190611d57565b60405180910390f35b61023c6004803603610237919081019061185b565b6108ee565b6040516102499190611d3c565b60405180910390f35b61026c600480360361026791908101906117f6565b610bce565b6040516102799190611c1f565b60405180910390f35b61029c60048036036102979190810190611742565b610c81565b6040516102a99190611d3c565b60405180910390f35b6102ba610cc9565b6040516102c79190611c3a565b60405180910390f35b6102ea60048036036102e591908101906117f6565b610d6b565b6040516102f79190611c1f565b60405180910390f35b61031a600480360361031591908101906117f6565b610e38565b6040516103279190611c1f565b60405180910390f35b61034a60048036036103459190810190611742565b610e56565b6040516103579190611d3c565b60405180910390f35b61037a6004803603610375919081019061185b565b610e6e565b6040516103879190611d3c565b60405180910390f35b6103aa60048036036103a5919081019061176b565b611150565b6040516103b79190611d3c565b60405180910390f35b606060038054600181600116156101000203166002900480601f0160208091040260200160405190810160405280929190818152602001828054600181600116156101000203166002900480156104585780601f1061042d57610100808354040283529160200191610458565b820191906000526020600020905b81548152906001019060200180831161043b57829003601f168201915b5050505050905090565b6000600860009054906101000a900473ffffffffffffffffffffffffffffffffffffffff1673ffffffffffffffffffffffffffffffffffffffff166370a08231336040518263ffffffff1660e01b81526004016104bf9190611ba4565b60206040518083038186803b1580156104d757600080fd5b505afa1580156104eb573d6000803e3d6000fd5b505050506040513d601f19601f8201168201806040525061050f9190810190611884565b9050919050565b600061052a6105236111d7565b84846111df565b6001905092915050565b6000600760009054906101000a900473ffffffffffffffffffffffffffffffffffffffff1673ffffffffffffffffffffffffffffffffffffffff166370a08231306040518263ffffffff1660e01b81526004016105919190611b89565b60206040518083038186803b1580156105a957600080fd5b505afa1580156105bd573d6000803e3d6000fd5b505050506040513d601f19601f820116820180604052506105e19190810190611884565b9050600760009054906101000a900473ffffffffffffffffffffffffffffffffffffffff1673ffffffffffffffffffffffffffffffffffffffff166348c54b9d6040518163ffffffff1660e01b8152600401602060405180830381600087803b15801561064d57600080fd5b505af1158015610661573d6000803e3d6000fd5b505050506040513d601f19601f820116820180604052506106859190810190611884565b506000600760009054906101000a900473ffffffffffffffffffffffffffffffffffffffff1673ffffffffffffffffffffffffffffffffffffffff166370a08231306040518263ffffffff1660e01b81526004016106e39190611b89565b60206040518083038186803b1580156106fb57600080fd5b505afa15801561070f573d6000803e3d6000fd5b505050506040513d601f19601f820116820180604052506107339190810190611884565b9050600860009054906101000a900473ffffffffffffffffffffffffffffffffffffffff1673ffffffffffffffffffffffffffffffffffffffff166340c10f19338484036040518363ffffffff1660e01b8152600401610794929190611bf6565b600060405180830381600087803b1580156107ae57600080fd5b505af11580156107c2573d6000803e3d6000fd5b505050505050565b6000600254905090565b6000600860009054906101000a900473ffffffffffffffffffffffffffffffffffffffff16905090565b600061080b8484846113aa565b6108cc846108176111d7565b6108c785604051806060016040528060288152602001611ec960289139600160008b73ffffffffffffffffffffffffffffffffffffffff1673ffffffffffffffffffffffffffffffffffffffff168152602001908152602001600020600061087d6111d7565b73ffffffffffffffffffffffffffffffffffffffff1673ffffffffffffffffffffffffffffffffffffffff1681526020019081526020016000205461163f9092919063ffffffff16565b6111df565b600190509392505050565b6000600560009054906101000a900460ff16905090565b6000600760009054906101000a900473ffffffffffffffffffffffffffffffffffffffff1673ffffffffffffffffffffffffffffffffffffffff166370a08231306040518263ffffffff1660e01b815260040161094b9190611b89565b60206040518083038186803b15801561096357600080fd5b505afa158015610977573d6000803e3d6000fd5b505050506040513d601f19601f8201168201806040525061099b9190810190611884565b8211156109dd576040517f08c379a00000000000000000000000000000000000000000000000000000000081526004016109d490611c7c565b60405180910390fd5b600760009054906101000a900473ffffffffffffffffffffffffffffffffffffffff1673ffffffffffffffffffffffffffffffffffffffff1663a9059cbb33846040518363ffffffff1660e01b8152600401610a3a929190611bf6565b602060405180830381600087803b158015610a5457600080fd5b505af1158015610a68573d6000803e3d6000fd5b505050506040513d601f19601f82011682018060405250610a8c9190810190611832565b50600860009054906101000a900473ffffffffffffffffffffffffffffffffffffffff1673ffffffffffffffffffffffffffffffffffffffff16639dc29fac33846040518363ffffffff1660e01b8152600401610aea929190611bf6565b600060405180830381600087803b158015610b0457600080fd5b505af1158015610b18573d6000803e3d6000fd5b50505050600860009054906101000a900473ffffffffffffffffffffffffffffffffffffffff1673ffffffffffffffffffffffffffffffffffffffff166370a08231336040518263ffffffff1660e01b8152600401610b779190611ba4565b60206040518083038186803b158015610b8f57600080fd5b505afa158015610ba3573d6000803e3d6000fd5b505050506040513d601f19601f82011682018060405250610bc79190810190611884565b9050919050565b6000610c77610bdb6111d7565b84610c728560016000610bec6111d7565b73ffffffffffffffffffffffffffffffffffffffff1673ffffffffffffffffffffffffffffffffffffffff16815260200190815260200160002060008973ffffffffffffffffffffffffffffffffffffffff1673ffffffffffffffffffffffffffffffffffffffff1681526020019081526020016000205461169490919063ffffffff16565b6111df565b6001905092915050565b60008060008373ffffffffffffffffffffffffffffffffffffffff1673ffffffffffffffffffffffffffffffffffffffff168152602001908152602001600020549050919050565b606060048054600181600116156101000203166002900480601f016020809104026020016040519081016040528092919081815260200182805460018160011615610100020316600290048015610d615780601f10610d3657610100808354040283529160200191610d61565b820191906000526020600020905b815481529060010190602001808311610d4457829003601f168201915b5050505050905090565b6000610e2e610d786111d7565b84610e2985604051806060016040528060258152602001611ef16025913960016000610da26111d7565b73ffffffffffffffffffffffffffffffffffffffff1673ffffffffffffffffffffffffffffffffffffffff16815260200190815260200160002060008a73ffffffffffffffffffffffffffffffffffffffff1673ffffffffffffffffffffffffffffffffffffffff1681526020019081526020016000205461163f9092919063ffffffff16565b6111df565b6001905092915050565b6000610e4c610e456111d7565b84846113aa565b6001905092915050565b60066020528060005260406000206000915090505481565b6000600760009054906101000a900473ffffffffffffffffffffffffffffffffffffffff1673ffffffffffffffffffffffffffffffffffffffff166370a08231306040518263ffffffff1660e01b8152600401610ecb9190611b89565b60206040518083038186803b158015610ee357600080fd5b505afa158015610ef7573d6000803e3d6000fd5b505050506040513d601f19601f82011682018060405250610f1b9190810190611884565b821115610f5d576040517f08c379a0000000000000000000000000000000000000000000000000000000008152600401610f5490611cdc565b60405180910390fd5b600760009054906101000a900473ffffffffffffffffffffffffffffffffffffffff1673ffffffffffffffffffffffffffffffffffffffff166323b872dd3330856040518463ffffffff1660e01b8152600401610fbc93929190611bbf565b602060405180830381600087803b158015610fd657600080fd5b505af1158015610fea573d6000803e3d6000fd5b505050506040513d601f19601f8201168201806040525061100e9190810190611832565b50600860009054906101000a900473ffffffffffffffffffffffffffffffffffffffff1673ffffffffffffffffffffffffffffffffffffffff166340c10f1933846040518363ffffffff1660e01b815260040161106c929190611bf6565b600060405180830381600087803b15801561108657600080fd5b505af115801561109a573d6000803e3d6000fd5b50505050600860009054906101000a900473ffffffffffffffffffffffffffffffffffffffff1673ffffffffffffffffffffffffffffffffffffffff166370a08231336040518263ffffffff1660e01b81526004016110f99190611ba4565b60206040518083038186803b15801561111157600080fd5b505afa158015611125573d6000803e3d6000fd5b505050506040513d601f19601f820116820180604052506111499190810190611884565b9050919050565b6000600160008473ffffffffffffffffffffffffffffffffffffffff1673ffffffffffffffffffffffffffffffffffffffff16815260200190815260200160002060008373ffffffffffffffffffffffffffffffffffffffff1673ffffffffffffffffffffffffffffffffffffffff16815260200190815260200160002054905092915050565b600033905090565b600073ffffffffffffffffffffffffffffffffffffffff168373ffffffffffffffffffffffffffffffffffffffff16141561124f576040517f08c379a000000000000000000000000000000000000000000000000000000000815260040161124690611d1c565b60405180910390fd5b600073ffffffffffffffffffffffffffffffffffffffff168273ffffffffffffffffffffffffffffffffffffffff1614156112bf576040517f08c379a00000000000000000000000000000000000000000000000000000000081526004016112b690611c9c565b60405180910390fd5b80600160008573ffffffffffffffffffffffffffffffffffffffff1673ffffffffffffffffffffffffffffffffffffffff16815260200190815260200160002060008473ffffffffffffffffffffffffffffffffffffffff1673ffffffffffffffffffffffffffffffffffffffff168152602001908152602001600020819055508173ffffffffffffffffffffffffffffffffffffffff168373ffffffffffffffffffffffffffffffffffffffff167f8c5be1e5ebec7d5bd14f71427d1e84f3dd0314c0f7b2291e5b200ac8c7c3b9258360405161139d9190611d3c565b60405180910390a3505050565b600073ffffffffffffffffffffffffffffffffffffffff168373ffffffffffffffffffffffffffffffffffffffff16141561141a576040517f08c379a000000000000000000000000000000000000000000000000000000000815260040161141190611cfc565b60405180910390fd5b600073ffffffffffffffffffffffffffffffffffffffff168273ffffffffffffffffffffffffffffffffffffffff16141561148a576040517f08c379a000000000000000000000000000000000000000000000000000000000815260040161148190611c5c565b60405180910390fd5b6114958383836116e9565b61150081604051806060016040528060268152602001611ea3602691396000808773ffffffffffffffffffffffffffffffffffffffff1673ffffffffffffffffffffffffffffffffffffffff1681526020019081526020016000205461163f9092919063ffffffff16565b6000808573ffffffffffffffffffffffffffffffffffffffff1673ffffffffffffffffffffffffffffffffffffffff16815260200190815260200160002081905550611593816000808573ffffffffffffffffffffffffffffffffffffffff1673ffffffffffffffffffffffffffffffffffffffff1681526020019081526020016000205461169490919063ffffffff16565b6000808473ffffffffffffffffffffffffffffffffffffffff1673ffffffffffffffffffffffffffffffffffffffff168152602001908152602001600020819055508173ffffffffffffffffffffffffffffffffffffffff168373ffffffffffffffffffffffffffffffffffffffff167fddf252ad1be2c89b69c2b068fc378daa952ba7f163c4a11628f55a4df523b3ef836040516116329190611d3c565b60405180910390a3505050565b6000838311158290611687576040517f08c379a000000000000000000000000000000000000000000000000000000000815260040161167e9190611c3a565b60405180910390fd5b5082840390509392505050565b6000808284019050838110156116df576040517f08c379a00000000000000000000000000000000000000000000000000000000081526004016116d690611cbc565b60405180910390fd5b8091505092915050565b505050565b6000813590506116fd81611e5d565b92915050565b60008151905061171281611e74565b92915050565b60008135905061172781611e8b565b92915050565b60008151905061173c81611e8b565b92915050565b60006020828403121561175457600080fd5b6000611762848285016116ee565b91505092915050565b6000806040838503121561177e57600080fd5b600061178c858286016116ee565b925050602061179d858286016116ee565b9150509250929050565b6000806000606084860312156117bc57600080fd5b60006117ca868287016116ee565b93505060206117db868287016116ee565b92505060406117ec86828701611718565b9150509250925092565b6000806040838503121561180957600080fd5b6000611817858286016116ee565b925050602061182885828601611718565b9150509250929050565b60006020828403121561184457600080fd5b600061185284828501611703565b91505092915050565b60006020828403121561186d57600080fd5b600061187b84828501611718565b91505092915050565b60006020828403121561189657600080fd5b60006118a48482850161172d565b91505092915050565b6118b681611de3565b82525050565b6118c581611d8e565b82525050565b6118d481611da0565b82525050565b60006118e582611d72565b6118ef8185611d7d565b93506118ff818560208601611e19565b61190881611e4c565b840191505092915050565b6000611920602383611d7d565b91507f45524332303a207472616e7366657220746f20746865207a65726f206164647260008301527f65737300000000000000000000000000000000000000000000000000000000006020830152604082019050919050565b6000611986600583611d7d565b91507f6572726f720000000000000000000000000000000000000000000000000000006000830152602082019050919050565b60006119c6602283611d7d565b91507f45524332303a20617070726f766520746f20746865207a65726f20616464726560008301527f73730000000000000000000000000000000000000000000000000000000000006020830152604082019050919050565b6000611a2c601b83611d7d565b91507f536166654d6174683a206164646974696f6e206f766572666c6f7700000000006000830152602082019050919050565b6000611a6c600683611d7d565b91507f6572726f723200000000000000000000000000000000000000000000000000006000830152602082019050919050565b6000611aac602583611d7d565b91507f45524332303a207472616e736665722066726f6d20746865207a65726f20616460008301527f64726573730000000000000000000000000000000000000000000000000000006020830152604082019050919050565b6000611b12602483611d7d565b91507f45524332303a20617070726f76652066726f6d20746865207a65726f2061646460008301527f72657373000000000000000000000000000000000000000000000000000000006020830152604082019050919050565b611b7481611dcc565b82525050565b611b8381611dd6565b82525050565b6000602082019050611b9e60008301846118bc565b92915050565b6000602082019050611bb960008301846118ad565b92915050565b6000606082019050611bd460008301866118ad565b611be160208301856118bc565b611bee6040830184611b6b565b949350505050565b6000604082019050611c0b60008301856118ad565b611c186020830184611b6b565b9392505050565b6000602082019050611c3460008301846118cb565b92915050565b60006020820190508181036000830152611c5481846118da565b905092915050565b60006020820190508181036000830152611c7581611913565b9050919050565b60006020820190508181036000830152611c9581611979565b9050919050565b60006020820190508181036000830152611cb5816119b9565b9050919050565b60006020820190508181036000830152611cd581611a1f565b9050919050565b60006020820190508181036000830152611cf581611a5f565b9050919050565b60006020820190508181036000830152611d1581611a9f565b9050919050565b60006020820190508181036000830152611d3581611b05565b9050919050565b6000602082019050611d516000830184611b6b565b92915050565b6000602082019050611d6c6000830184611b7a565b92915050565b600081519050919050565b600082825260208201905092915050565b6000611d9982611dac565b9050919050565b60008115159050919050565b600073ffffffffffffffffffffffffffffffffffffffff82169050919050565b6000819050919050565b600060ff82169050919050565b6000611dee82611df5565b9050919050565b6000611e0082611e07565b9050919050565b6000611e1282611dac565b9050919050565b60005b83811015611e37578082015181840152602081019050611e1c565b83811115611e46576000848401525b50505050565b6000601f19601f8301169050919050565b611e6681611d8e565b8114611e7157600080fd5b50565b611e7d81611da0565b8114611e8857600080fd5b50565b611e9481611dcc565b8114611e9f57600080fd5b5056fe45524332303a207472616e7366657220616d6f756e7420657863656564732062616c616e636545524332303a207472616e7366657220616d6f756e74206578636565647320616c6c6f77616e636545524332303a2064656372656173656420616c6c6f77616e63652062656c6f77207a65726fa264697066735822122026a92e96eebac4f1f2bd8830540a8191478ec93207f8e34aaa990825150973fd64736f6c63430006020033",
  "source": "pragma solidity ^0.6.0;\npragma experimental ABIEncoderV2;\nimport \"@openzeppelin/contracts/token/ERC20/ERC20.sol\";\n\nimport \"./ERC20TD.sol\";\nimport \"./IExerciceSolution.sol\";\nimport \"./ERC20Claimable.sol\";\nimport \"./ERC20Mintable.sol\";\n\ncontract ExerciceSolution is ERC20\n{\n\tmapping(address => uint256) public tokenvalue;\n\tERC20Claimable myerc20claimable;\n\tERC20Mintable myerc20mintable;\n\tconstructor(string memory name_, string memory symbol_,ERC20Claimable claimable, ERC20Mintable mintable) public ERC20(name_, symbol_) \n\t{\n\t   myerc20claimable = claimable;\n\t   myerc20mintable = mintable;\n\t}\n\n\tfunction claimTokensOnBehalf() external \n\t{\n\t\t/*uint256 initbalance = myerc20claimable.balanceOf(address(this));\n\t\tmyerc20claimable.claimTokens();\n\t\tuint256 endbalance = myerc20claimable.balanceOf(address(this));\n        tokenvalue[msg.sender]+=endbalance-initbalance;*/\n\n\t\tuint256 initbalance = myerc20claimable.balanceOf(address(this));\n\t\tmyerc20claimable.claimTokens();\n\t\tuint256 endbalance = myerc20claimable.balanceOf(address(this));\n        myerc20mintable.mint(msg.sender,endbalance-initbalance);\n\t}\n\n\tfunction tokensInCustody(address callerAddress) external returns (uint256)\n\t{\n\t\treturn myerc20mintable.balanceOf(msg.sender);\n\t}\n\n\tfunction withdrawTokens(uint256 amountToWithdraw) external returns (uint256)\n\t{\n\t\t\n\t\t/*require(amountToWithdraw <= myerc20claimable.balanceOf(address(this)),\"error\");\n\t\tmyerc20claimable.transfer(msg.sender, amountToWithdraw);\n\t\ttokenvalue[msg.sender]=tokenvalue[msg.sender]-amountToWithdraw;\n\t\treturn tokenvalue[msg.sender];*/\n\n\t\trequire(amountToWithdraw <= myerc20claimable.balanceOf(address(this)),\"error\");\n\t\tmyerc20claimable.transfer(msg.sender, amountToWithdraw);\n\t\tmyerc20mintable.burn(msg.sender, amountToWithdraw);\n\t\treturn myerc20mintable.balanceOf(msg.sender);\n\n\t}\n\n\tfunction depositTokens(uint256 amountToWithdraw) external returns (uint256)\n\t{\n\n\t\t/*require(amountToWithdraw <= myerc20claimable.balanceOf(address(this)),\"error2\");\n\t\tmyerc20claimable.transferFrom(msg.sender, address(this), amountToWithdraw);\n\t\ttokenvalue[msg.sender]=tokenvalue[msg.sender]+amountToWithdraw;\n\t\treturn tokenvalue[msg.sender];*/\n\n\t\trequire(amountToWithdraw <= myerc20claimable.balanceOf(address(this)),\"error2\");\n\t\tmyerc20claimable.transferFrom(msg.sender, address(this), amountToWithdraw);\n\t\tmyerc20mintable.mint(msg.sender, amountToWithdraw);\n\t\treturn myerc20mintable.balanceOf(msg.sender);\n\t}\n\n\tfunction getERC20DepositAddress() external returns (address)\n\t{\n\t\treturn address(myerc20mintable);\n\t}\n}\n",
  "sourcePath": "C:\\Github\\BP-TD7\\contracts\\ExerciceSolution.sol",
  "compiler": {
    "name": "solc",
    "version": "0.6.2+commit.bacdbe57.Emscripten.clang"
  },
  "schemaVersion": "3.4.3",
  "updatedAt": "2022-01-22T19:33:38.747Z",
  "networkType": "ethereum",
  "devdoc": {
    "methods": {
      "allowance(address,address)": {
        "details": "See {IERC20-allowance}."
      },
      "approve(address,uint256)": {
        "details": "See {IERC20-approve}.     * Requirements:     * - `spender` cannot be the zero address."
      },
      "balanceOf(address)": {
        "details": "See {IERC20-balanceOf}."
      },
      "decimals()": {
        "details": "Returns the number of decimals used to get its user representation. For example, if `decimals` equals `2`, a balance of `505` tokens should be displayed to a user as `5,05` (`505 / 10 ** 2`).     * Tokens usually opt for a value of 18, imitating the relationship between Ether and Wei. This is the value {ERC20} uses, unless {_setupDecimals} is called.     * NOTE: This information is only used for _display_ purposes: it in no way affects any of the arithmetic of the contract, including {IERC20-balanceOf} and {IERC20-transfer}."
      },
      "decreaseAllowance(address,uint256)": {
        "details": "Atomically decreases the allowance granted to `spender` by the caller.     * This is an alternative to {approve} that can be used as a mitigation for problems described in {IERC20-approve}.     * Emits an {Approval} event indicating the updated allowance.     * Requirements:     * - `spender` cannot be the zero address. - `spender` must have allowance for the caller of at least `subtractedValue`."
      },
      "increaseAllowance(address,uint256)": {
        "details": "Atomically increases the allowance granted to `spender` by the caller.     * This is an alternative to {approve} that can be used as a mitigation for problems described in {IERC20-approve}.     * Emits an {Approval} event indicating the updated allowance.     * Requirements:     * - `spender` cannot be the zero address."
      },
      "name()": {
        "details": "Returns the name of the token."
      },
      "symbol()": {
        "details": "Returns the symbol of the token, usually a shorter version of the name."
      },
      "totalSupply()": {
        "details": "See {IERC20-totalSupply}."
      },
      "transfer(address,uint256)": {
        "details": "See {IERC20-transfer}.     * Requirements:     * - `recipient` cannot be the zero address. - the caller must have a balance of at least `amount`."
      },
      "transferFrom(address,address,uint256)": {
        "details": "See {IERC20-transferFrom}.     * Emits an {Approval} event indicating the updated allowance. This is not required by the EIP. See the note at the beginning of {ERC20}.     * Requirements:     * - `sender` and `recipient` cannot be the zero address. - `sender` must have a balance of at least `amount`. - the caller must have allowance for ``sender``'s tokens of at least `amount`."
      }
    }
  },
  "userdoc": {
    "methods": {}
  }
}